{
  "contractName": "Kittycontract",
  "abi": [
    {
      "anonymous": false,
      "inputs": [
        {
          "indexed": false,
          "internalType": "address",
          "name": "owner",
          "type": "address"
        },
        {
          "indexed": false,
          "internalType": "uint256",
          "name": "kittenId",
          "type": "uint256"
        },
        {
          "indexed": false,
          "internalType": "uint256",
          "name": "mumId",
          "type": "uint256"
        },
        {
          "indexed": false,
          "internalType": "uint256",
          "name": "dadId",
          "type": "uint256"
        },
        {
          "indexed": false,
          "internalType": "uint256",
          "name": "genes",
          "type": "uint256"
        },
        {
          "indexed": false,
          "internalType": "uint256",
          "name": "generation",
          "type": "uint256"
        }
      ],
      "name": "Birth",
      "type": "event"
    },
    {
      "anonymous": false,
      "inputs": [
        {
          "indexed": true,
          "internalType": "address",
          "name": "from",
          "type": "address"
        },
        {
          "indexed": true,
          "internalType": "address",
          "name": "to",
          "type": "address"
        },
        {
          "indexed": true,
          "internalType": "uint256",
          "name": "tokenId",
          "type": "uint256"
        }
      ],
      "name": "Transfer",
      "type": "event"
    },
    {
      "constant": true,
      "inputs": [
        {
          "internalType": "uint256",
          "name": "",
          "type": "uint256"
        }
      ],
      "name": "kittyIndexToApproved",
      "outputs": [
        {
          "internalType": "address",
          "name": "",
          "type": "address"
        }
      ],
      "payable": false,
      "stateMutability": "view",
      "type": "function"
    },
    {
      "constant": true,
      "inputs": [],
      "name": "name",
      "outputs": [
        {
          "internalType": "string",
          "name": "",
          "type": "string"
        }
      ],
      "payable": false,
      "stateMutability": "view",
      "type": "function"
    },
    {
      "constant": true,
      "inputs": [],
      "name": "owner",
      "outputs": [
        {
          "internalType": "address",
          "name": "",
          "type": "address"
        }
      ],
      "payable": false,
      "stateMutability": "view",
      "type": "function"
    },
    {
      "constant": true,
      "inputs": [],
      "name": "symbol",
      "outputs": [
        {
          "internalType": "string",
          "name": "",
          "type": "string"
        }
      ],
      "payable": false,
      "stateMutability": "view",
      "type": "function"
    },
    {
      "constant": true,
      "inputs": [
        {
          "internalType": "uint256",
          "name": "",
          "type": "uint256"
        }
      ],
      "name": "tokenOwner",
      "outputs": [
        {
          "internalType": "address",
          "name": "",
          "type": "address"
        }
      ],
      "payable": false,
      "stateMutability": "view",
      "type": "function"
    },
    {
      "constant": false,
      "inputs": [
        {
          "internalType": "uint256",
          "name": "_genes",
          "type": "uint256"
        }
      ],
      "name": "createKittyGen0",
      "outputs": [
        {
          "internalType": "uint256",
          "name": "",
          "type": "uint256"
        }
      ],
      "payable": false,
      "stateMutability": "nonpayable",
      "type": "function"
    },
    {
      "constant": true,
      "inputs": [
        {
          "internalType": "uint256",
          "name": "tokenId",
          "type": "uint256"
        }
      ],
      "name": "getKitty",
      "outputs": [
        {
          "internalType": "uint256",
          "name": "genes",
          "type": "uint256"
        },
        {
          "internalType": "uint256",
          "name": "birthTime",
          "type": "uint256"
        },
        {
          "internalType": "uint256",
          "name": "mumId",
          "type": "uint256"
        },
        {
          "internalType": "uint256",
          "name": "dadId",
          "type": "uint256"
        },
        {
          "internalType": "uint256",
          "name": "generation",
          "type": "uint256"
        }
      ],
      "payable": false,
      "stateMutability": "view",
      "type": "function"
    },
    {
      "constant": true,
      "inputs": [
        {
          "internalType": "address",
          "name": "owner",
          "type": "address"
        }
      ],
      "name": "balanceOf",
      "outputs": [
        {
          "internalType": "uint256",
          "name": "balance",
          "type": "uint256"
        }
      ],
      "payable": false,
      "stateMutability": "view",
      "type": "function"
    },
    {
      "constant": true,
      "inputs": [],
      "name": "totalSupply",
      "outputs": [
        {
          "internalType": "uint256",
          "name": "total",
          "type": "uint256"
        }
      ],
      "payable": false,
      "stateMutability": "view",
      "type": "function"
    },
    {
      "constant": true,
      "inputs": [],
      "name": "tokenName",
      "outputs": [
        {
          "internalType": "string",
          "name": "tokenName",
          "type": "string"
        }
      ],
      "payable": false,
      "stateMutability": "view",
      "type": "function"
    },
    {
      "constant": true,
      "inputs": [],
      "name": "tokenSymbol",
      "outputs": [
        {
          "internalType": "string",
          "name": "tokenSymbol",
          "type": "string"
        }
      ],
      "payable": false,
      "stateMutability": "view",
      "type": "function"
    },
    {
      "constant": true,
      "inputs": [
        {
          "internalType": "uint256",
          "name": "tokenId",
          "type": "uint256"
        }
      ],
      "name": "ownerOf",
      "outputs": [
        {
          "internalType": "address",
          "name": "owner",
          "type": "address"
        }
      ],
      "payable": false,
      "stateMutability": "view",
      "type": "function"
    },
    {
      "constant": false,
      "inputs": [
        {
          "internalType": "address",
          "name": "to",
          "type": "address"
        },
        {
          "internalType": "uint256",
          "name": "tokenId",
          "type": "uint256"
        }
      ],
      "name": "transfer",
      "outputs": [],
      "payable": false,
      "stateMutability": "nonpayable",
      "type": "function"
    },
    {
      "constant": true,
      "inputs": [
        {
          "internalType": "address",
          "name": "owner",
          "type": "address"
        }
      ],
      "name": "getAllKittiesIOwn",
      "outputs": [
        {
          "internalType": "uint256[]",
          "name": "",
          "type": "uint256[]"
        }
      ],
      "payable": false,
      "stateMutability": "view",
      "type": "function"
    }
  ],
  "bytecode": "0x6080604052336000806101000a81548173ffffffffffffffffffffffffffffffffffffffff021916908373ffffffffffffffffffffffffffffffffffffffff16021790555061150f806100536000396000f3fe608060405234801561001057600080fd5b50600436106100ea5760003560e01c806370a082311161008c57806395d89b411161006657806395d89b4114610275578063a9059cbb14610293578063d5a776ca146102af578063e98b7f4d146102df576100ea565b806370a08231146102095780637b61c320146102395780638da5cb5b14610257576100ea565b8063276275be116100c8578063276275be1461015b578063481af3d31461018b5780636352211e146101bb5780636c02a931146101eb576100ea565b806306fdde03146100ef57806318160ddd1461010d5780631caaa4871461012b575b600080fd5b6100f7610313565b604051610104919061128c565b60405180910390f35b61011561034c565b6040516101229190611350565b60405180910390f35b61014560048036036101409190810190610f8a565b610359565b60405161015291906111ee565b60405180910390f35b61017560048036036101709190810190610f25565b61038c565b604051610182919061126a565b60405180910390f35b6101a560048036036101a09190810190610f8a565b610423565b6040516101b291906111ee565b60405180910390f35b6101d560048036036101d09190810190610f8a565b610456565b6040516101e291906111ee565b60405180910390f35b6101f3610493565b60405161020091906112ae565b60405180910390f35b610223600480360361021e9190810190610f25565b6104d0565b6040516102309190611350565b60405180910390f35b610241610519565b60405161024e91906112ae565b60405180910390f35b61025f610556565b60405161026c91906111ee565b60405180910390f35b61027d61057b565b60405161028a919061128c565b60405180910390f35b6102ad60048036036102a89190810190610f4e565b6105b4565b005b6102c960048036036102c49190810190610f8a565b610964565b6040516102d69190611350565b60405180910390f35b6102f960048036036102f49190810190610f8a565b6109fc565b60405161030a95949392919061136b565b60405180910390f35b6040518060400160405280600a81526020017f4372617a7920436174730000000000000000000000000000000000000000000081525081565b6000600180549050905090565b60026020528060005260406000206000915054906101000a900473ffffffffffffffffffffffffffffffffffffffff1681565b6060600660008373ffffffffffffffffffffffffffffffffffffffff1673ffffffffffffffffffffffffffffffffffffffff16815260200190815260200160002080548060200260200160405190810160405280929190818152602001828054801561041757602002820191906000526020600020905b815481526020019060010190808311610403575b50505050509050919050565b60046020528060005260406000206000915054906101000a900473ffffffffffffffffffffffffffffffffffffffff1681565b60006002600083815260200190815260200160002060009054906101000a900473ffffffffffffffffffffffffffffffffffffffff169050919050565b60606040518060400160405280600a81526020017f4372617a79204361747300000000000000000000000000000000000000000000815250905090565b6000600360008373ffffffffffffffffffffffffffffffffffffffff1673ffffffffffffffffffffffffffffffffffffffff168152602001908152602001600020549050919050565b60606040518060400160405280600381526020017f4343530000000000000000000000000000000000000000000000000000000000815250905090565b6000809054906101000a900473ffffffffffffffffffffffffffffffffffffffff1681565b6040518060400160405280600381526020017f434353000000000000000000000000000000000000000000000000000000000081525081565b600073ffffffffffffffffffffffffffffffffffffffff166002600083815260200190815260200160002060009054906101000a900473ffffffffffffffffffffffffffffffffffffffff1673ffffffffffffffffffffffffffffffffffffffff161415610657576040517f08c379a000000000000000000000000000000000000000000000000000000000815260040161064e906112f0565b60405180910390fd5b3373ffffffffffffffffffffffffffffffffffffffff166002600083815260200190815260200160002060009054906101000a900473ffffffffffffffffffffffffffffffffffffffff1673ffffffffffffffffffffffffffffffffffffffff16146106f8576040517f08c379a00000000000000000000000000000000000000000000000000000000081526004016106ef90611330565b60405180910390fd5b600073ffffffffffffffffffffffffffffffffffffffff168273ffffffffffffffffffffffffffffffffffffffff161415610768576040517f08c379a000000000000000000000000000000000000000000000000000000000815260040161075f90611310565b60405180910390fd5b3073ffffffffffffffffffffffffffffffffffffffff168273ffffffffffffffffffffffffffffffffffffffff1614156107d7576040517f08c379a00000000000000000000000000000000000000000000000000000000081526004016107ce906112d0565b60405180910390fd5b3373ffffffffffffffffffffffffffffffffffffffff166002600083815260200190815260200160002060009054906101000a905050506000829050806002600084815260200190815260200160002060006101000a81548173ffffffffffffffffffffffffffffffffffffffff021916908373ffffffffffffffffffffffffffffffffffffffff160217905550600360008473ffffffffffffffffffffffffffffffffffffffff1673ffffffffffffffffffffffffffffffffffffffff16815260200190815260200160002060008154809291906001019190505550600360003373ffffffffffffffffffffffffffffffffffffffff1673ffffffffffffffffffffffffffffffffffffffff1681526020019081526020016000206000815480929190600190039190505550818173ffffffffffffffffffffffffffffffffffffffff163373ffffffffffffffffffffffffffffffffffffffff167fddf252ad1be2c89b69c2b068fc378daa952ba7f163c4a11628f55a4df523b3ef60405160405180910390a4505050565b60008060009054906101000a900473ffffffffffffffffffffffffffffffffffffffff1673ffffffffffffffffffffffffffffffffffffffff163373ffffffffffffffffffffffffffffffffffffffff16146109bf57600080fd5b60006109f16000806000866000809054906101000a900473ffffffffffffffffffffffffffffffffffffffff16610b1a565b905080915050919050565b600080600080600060018681548110610a1157fe5b90600052602060002090600202016000015460018781548110610a3057fe5b906000526020600020906002020160010160009054906101000a900467ffffffffffffffff1660018881548110610a6357fe5b906000526020600020906002020160010160089054906101000a900463ffffffff1660018981548110610a9257fe5b9060005260206000209060020201600101600c9054906101000a900463ffffffff1660018a81548110610ac157fe5b906000526020600020906002020160010160109054906101000a900461ffff168367ffffffffffffffff1693508263ffffffff1692508163ffffffff1691508061ffff1690509450945094509450945091939590929450565b6000610b24610eb2565b6040518060a001604052808581526020014267ffffffffffffffff1681526020018863ffffffff1681526020018763ffffffff1681526020018661ffff168152509050600060018083908060018154018082558091505090600182039060005260206000209060020201600090919290919091506000820151816000015560208201518160010160006101000a81548167ffffffffffffffff021916908367ffffffffffffffff16021790555060408201518160010160086101000a81548163ffffffff021916908363ffffffff160217905550606082015181600101600c6101000a81548163ffffffff021916908363ffffffff16021790555060808201518160010160106101000a81548161ffff021916908361ffff1602179055505050039050600660008060009054906101000a900473ffffffffffffffffffffffffffffffffffffffff1673ffffffffffffffffffffffffffffffffffffffff1673ffffffffffffffffffffffffffffffffffffffff1681526020019081526020016000208190806001815401808255809150509060018203906000526020600020016000909192909190915055507fa2950fd8c03e7518275ee57e05ca76c671969b5445b12b1aeea4b0b30195e5df84828a8a898b604051610d0a96959493929190611209565b60405180910390a1610d1e60008583610d2c565b809250505095945050505050565b600360008373ffffffffffffffffffffffffffffffffffffffff1673ffffffffffffffffffffffffffffffffffffffff16815260200190815260200160002060008154809291906001019190505550816002600083815260200190815260200160002060006101000a81548173ffffffffffffffffffffffffffffffffffffffff021916908373ffffffffffffffffffffffffffffffffffffffff160217905550600073ffffffffffffffffffffffffffffffffffffffff168373ffffffffffffffffffffffffffffffffffffffff1614610e5257600360008473ffffffffffffffffffffffffffffffffffffffff1673ffffffffffffffffffffffffffffffffffffffff16815260200190815260200160002060008154809291906001900391905055505b808273ffffffffffffffffffffffffffffffffffffffff168473ffffffffffffffffffffffffffffffffffffffff167fddf252ad1be2c89b69c2b068fc378daa952ba7f163c4a11628f55a4df523b3ef60405160405180910390a4505050565b6040518060a0016040528060008152602001600067ffffffffffffffff168152602001600063ffffffff168152602001600063ffffffff168152602001600061ffff1681525090565b600081359050610f0a8161149e565b92915050565b600081359050610f1f816114b5565b92915050565b600060208284031215610f3757600080fd5b6000610f4584828501610efb565b91505092915050565b60008060408385031215610f6157600080fd5b6000610f6f85828601610efb565b9250506020610f8085828601610f10565b9150509250929050565b600060208284031215610f9c57600080fd5b6000610faa84828501610f10565b91505092915050565b6000610fbf83836111d0565b60208301905092915050565b610fd48161141e565b82525050565b6000610fe5826113ce565b610fef81856113fc565b9350610ffa836113be565b8060005b8381101561102b5781516110128882610fb3565b975061101d836113ef565b925050600181019050610ffe565b5085935050505092915050565b6000611043826113e4565b61104d818561140d565b935061105d81856020860161145a565b6110668161148d565b840191505092915050565b600061107c826113d9565b611086818561140d565b935061109681856020860161145a565b61109f8161148d565b840191505092915050565b60006110b7601f8361140d565b91507f43616e6e6f742073656e6420746f20636f6e74726163742061646472657373006000830152602082019050919050565b60006110f760198361140d565b91507f5468697320746f6b656e20646f6573206e6f74206578697374000000000000006000830152602082019050919050565b6000611137601b8361140d565b91507f43616e6e6f742073656e6420746f207a65726f206164647265737300000000006000830152602082019050919050565b600061117760238361140d565b91507f596f7520617265206e6f7420746865206f776e6572206f662074686973204b6960008301527f74747900000000000000000000000000000000000000000000000000000000006020830152604082019050919050565b6111d981611450565b82525050565b6111e881611450565b82525050565b60006020820190506112036000830184610fcb565b92915050565b600060c08201905061121e6000830189610fcb565b61122b60208301886111df565b61123860408301876111df565b61124560608301866111df565b61125260808301856111df565b61125f60a08301846111df565b979650505050505050565b600060208201905081810360008301526112848184610fda565b905092915050565b600060208201905081810360008301526112a68184611071565b905092915050565b600060208201905081810360008301526112c88184611038565b905092915050565b600060208201905081810360008301526112e9816110aa565b9050919050565b60006020820190508181036000830152611309816110ea565b9050919050565b600060208201905081810360008301526113298161112a565b9050919050565b600060208201905081810360008301526113498161116a565b9050919050565b600060208201905061136560008301846111df565b92915050565b600060a08201905061138060008301886111df565b61138d60208301876111df565b61139a60408301866111df565b6113a760608301856111df565b6113b460808301846111df565b9695505050505050565b6000819050602082019050919050565b600081519050919050565b600081519050919050565b600081519050919050565b6000602082019050919050565b600082825260208201905092915050565b600082825260208201905092915050565b600061142982611430565b9050919050565b600073ffffffffffffffffffffffffffffffffffffffff82169050919050565b6000819050919050565b60005b8381101561147857808201518184015260208101905061145d565b83811115611487576000848401525b50505050565b6000601f19601f8301169050919050565b6114a78161141e565b81146114b257600080fd5b50565b6114be81611450565b81146114c957600080fd5b5056fea365627a7a7231582053d9de2187522bf84c2196596f4620ca129496b2f227d776d439312fab38fc0d6c6578706572696d656e74616cf564736f6c634300050c0040",
  "source": "//toDO , loop maken voor functie getAllKittiesIOwn ipv die extra mapping\r\n\r\npragma solidity ^0.5.12;\r\npragma experimental ABIEncoderV2;\r\nimport \"./IERC721.sol\";\r\nimport \"./Ownable.sol\";\r\n\r\ncontract Kittycontract is IERC721, Ownable {\r\n    event Birth(\r\n        address owner,\r\n        uint256 kittenId,\r\n        uint256 mumId,\r\n        uint256 dadId,\r\n        uint256 genes,\r\n        uint256 generation\r\n    );\r\n    event Transfer(\r\n        address indexed from,\r\n        address indexed to,\r\n        uint256 indexed tokenId\r\n    );\r\n\r\n    string public constant name = \"Crazy Cats\";\r\n    string public constant symbol = \"CCS\";\r\n\r\n    struct Kitty {\r\n        uint256 genes;\r\n        uint64 birthTime;\r\n        uint32 mumId;\r\n        uint32 dadId;\r\n        uint16 generation;\r\n    }\r\n    \r\n    Kitty[] Kitties;\r\n\r\n    mapping(uint256 => address) public tokenOwner;\r\n    mapping(address => uint256) private totalTokenCountOwner;\r\n\r\n    mapping (uint256 => address) public kittyIndexToApproved;\r\n    mapping (address => mapping (address => bool)) private _operatorApprovals;\r\n     \r\n\r\n    //uitleg mapping array https://medium.com/coinmonks/array-and-map-in-solidity-a579b311d74b\r\n    \r\n    mapping (address => uint[]) internal allKittiesOwnedByAddress;\r\n   //     mapping (address => uint[]) internal allKittiesOwnedByAddress;\r\n    \r\n    //nr2  mapping(uint => uint) internal tokenTokenIndexes;\r\n    //deze hierboven zouden de juist moeten zijn voor all tokens owned by address\r\n    //nr 2 van de mapping wordt gebrtuik om de positie van de token in de array te bepalen\r\n    //https://medium.com/@anallergytoanalogy/jumping-into-solidity-the-erc721-standard-part-7-9aca1411375a\r\n    \r\n    \r\n    function createKittyGen0(uint256 _genes) public onlyOwner returns(uint256) {\r\n       //owner = msg.sender;\r\n\r\n       uint256 result = _createKitty(0, 0, 0, _genes, owner);\r\n       return result;\r\n    }\r\n\r\n    function _createKitty(\r\n        uint256 _mumId,\r\n        uint256 _dadId,\r\n        uint256 _generation,\r\n        uint256 _genes,\r\n        address _owner\r\n    ) private returns (uint256) {\r\n        Kitty memory _kitty = Kitty({\r\n            genes: _genes,\r\n            birthTime: uint64(now),\r\n            mumId: uint32(_mumId),\r\n            dadId: uint32(_dadId),\r\n            generation: uint16(_generation)\r\n        });\r\n\r\n        uint256 newKittenId = Kitties.push(_kitty) - 1;\r\n       // allKittiesOwnedByAddress[newKittenId].push(uint);\r\n       \r\n     //   allKittiesOwnedByAddress[msg.sender].push(newKittenId);\r\n       allKittiesOwnedByAddress[owner].push(newKittenId);\r\n        \r\n        \r\n        //   ownerTokenIndexes[creator].push(i+1);\r\n    \r\n        emit Birth(_owner, newKittenId, _mumId, _dadId, _genes, _generation);\r\n\r\n        _transfer(address(0), _owner, newKittenId);\r\n        \r\n        return newKittenId;\r\n  \r\n    }\r\n\r\n    function getKitty(uint256 tokenId)\r\n        public\r\n        view\r\n        returns (\r\n            uint256 genes,\r\n            uint256 birthTime,\r\n            uint256 mumId,\r\n            uint256 dadId,\r\n            uint256 generation\r\n        )\r\n    {\r\n        return (\r\n            Kitties[tokenId].genes,\r\n            Kitties[tokenId].birthTime,\r\n            Kitties[tokenId].mumId,\r\n            Kitties[tokenId].dadId,\r\n            Kitties[tokenId].generation\r\n        );\r\n    }\r\n\r\n\r\n    function balanceOf(address owner) external view returns (uint256 balance) {\r\n        return totalTokenCountOwner[owner];\r\n    }\r\n\r\n    function totalSupply() external view returns (uint256 total) {\r\n        return Kitties.length;\r\n    }\r\n\r\n    function tokenName() external view returns (string memory tokenName) {\r\n        return name;\r\n    }\r\n\r\n    function tokenSymbol() external view returns (string memory tokenSymbol) {\r\n        return symbol;\r\n    }\r\n\r\n    function ownerOf(uint256 tokenId) external view returns (address owner) {\r\n        return tokenOwner[tokenId];\r\n    }\r\n    \r\n\r\n    function transfer(address to, uint256 tokenId) external {\r\n        require(tokenOwner[tokenId] != address(0), \"This token does not exist\");\r\n        require(\r\n            tokenOwner[tokenId] == msg.sender,\r\n            \"You are not the owner of this Kitty\"\r\n        );\r\n\r\n        require(to != address(0), \"Cannot send to zero address\");\r\n        require(to != address(this), \"Cannot send to contract address\");\r\n\r\n        tokenOwner[tokenId] == msg.sender;\r\n        address newOwner = to;\r\n\r\n        //set new owner token\r\n        tokenOwner[tokenId] = newOwner;\r\n\r\n        totalTokenCountOwner[to]++;\r\n\r\n        totalTokenCountOwner[msg.sender]--;\r\n\r\n        emit Transfer(msg.sender, newOwner, tokenId);\r\n    }\r\n\r\n    function _transfer(\r\n        address _from,\r\n        address _to,\r\n        uint256 _tokenId\r\n    ) internal {\r\n        totalTokenCountOwner[_to]++;\r\n\r\n        tokenOwner[_tokenId] = _to;\r\n\r\n        if (_from != address(0)) {\r\n            totalTokenCountOwner[_from]--;\r\n        }\r\n\r\n        emit Transfer(_from, _to, _tokenId);\r\n    }\r\n      \r\n      function getAllKittiesIOwn(address owner) public view returns(uint[] memory) {\r\n   //   allKittyiesOwnedbyUser =; \r\n    \r\n      return allKittiesOwnedByAddress[owner];\r\n   \r\n      }\r\n\r\n\r\n//function approve(address _approved, uint256 _tokenId) external onlyOwner {\r\n      \r\n  //  require(\r\n    //        tokenOwner[tokenId] == msg.sender || tokenOwner[tokenId] == msg.sender;,\r\n      //      \"You are not the owner of this Kitty\"\r\n        //);\r\n    \r\n  //   kittyIndexToApproved[_tokenId]  = _approved;\r\n// !! TOEVOEGEN : or an authorized  operator of the current owner.\r\n\r\n   // address addressCurrentOwner = tokenOwner;\r\n   // address addressNewOwner = _approved;\r\n\r\n    //tokenOwner[tokenId] = addressNewOwner;\r\n\r\n   // totalTokenCountOwner[address]++;\r\n   // totalTokenCountOwner[msg.sender]--;\r\n   // kittyIndexToApproved[_tokenId]++;\r\n    \r\n\r\n\r\n\r\n//}\r\n}\r\n",
  "sourcePath": "C:/Users/opasu/Documents/GitHub/academy-kitties-template/contracts/Kittycontract.sol",
  "compiler": {
    "name": "solc",
    "version": "0.5.12+commit.7709ece9.Emscripten.clang"
  },
  "schemaVersion": "3.2.5",
  "updatedAt": "2020-11-19T14:53:13.775Z",
  "networkType": "ethereum",
  "devdoc": {
    "methods": {}
  },
  "userdoc": {
    "methods": {}
  }
}